:100000000C9454060C9485060C9485060C94850675
:100010000C9485060C9485060C9485060C94850634
:100020000C9485060C9485060C9485060C94850624
:100030000C9485060C9485060C9485060C94850614
:100040000C9485060C9485060C9485060C94850604
:100050000C9485060C9485060C9485060C943F1729
:100060000C9485060C9409170C94DF160C948506E5
:100070000C9485060C9485060C9485060C948506D4
:100080000C9485060C9485060C9485060C948506C4
:100090000C9485060C9485060C9485060C9489179F
:1000A0000C9485060C9485060C9485060C948506A4
:1000B0000C9485060C9485060C9485060C94850694
:1000C0000C9485060C9485060C9485060C94850684
:1000D0000C9485060C9485060C9485060C94850674
:1000E0000C9485060C948E080C94AD180C9459074A
:1000F0000C9452090C941D070C94E1080C9481088F
:100100000C94B0080C94D6100C9498080C94B30777
:100110000C948B120C944A070C9492120C94F20FCC
:100120000C94E2100C9469120C947D080C94A608AF
:100130000C9479080C94AA080C9478120C94A208D8
:100140000C941B070C94C6100C94540B0C941B0FAE
:100150000C94490E0C941C070C941D160C9402125E
:100160000C9412090C940D0B0C9484080C947A0FC7
:100170000C9494080C948A080C946F080C94BF1289
:100180000C9456110C946D070C94B4080C947508DB
:100190000C94C40A0C9473160C94AF080C949C082D
:1001A0000C94551E0C9400080C940F100C948706A8
:1001B0000C94EE100C947B070C940F0C00000000C4
:1001C000003E5B4F5B3E3E6B4F6B3E1C3E7C3E1CDD
:1001D000183C7E3C181C577D571C1C5E7F5E1C0023
:1001E000183C1800FFE7C3E7FF0018241800FFE7DA
:1001F000DBE7FF30483A060E2629792926407F059D
:100200000507407F05253F5A3CE73C5A7F3E1C1CB2
:1002100008081C1C3E7F14227F22145F5F005F5F72
:1002200006097F017F006689956A6060606060945E
:10023000A2FFA29408047E040810207E2010080863
:100240002A1C08081C2A08081E101010100C1E0C6E
:100250001E0C30383E3830060E3E0E060000000000
:100260000000005F00000007000700147F147F14E7
:10027000242A7F2A1223130864623649562050002C
:1002800008070300001C2241000041221C002A1C18
:100290007F1C2A08083E0808008070300008080803
:1002A0000808000060600020100804023E51494523
:1002B0003E00427F400072494949462141494D3341
:1002C0001814127F1027454545393C4A49493141A8
:1002D000211109073649494936464949291E000076
:1002E00014000000403400000008142241141414CB
:1002F0001414004122140802015909063E415D59B7
:100300004E7C1211127C7F494949363E41414122BF
:100310007F4141413E7F494949417F090909013EE9
:10032000414151737F0808087F00417F4100204010
:10033000413F017F081422417F404040407F021C22
:10034000027F7F0408107F3E4141413E7F09090939
:10035000063E4151215E7F09192946264949493205
:1003600003017F01033F4040403F1F2040201F3FCB
:100370004038403F63140814630304780403615950
:10038000494D43007F414141020408102000414192
:10039000417F04020102044040404040000307083E
:1003A0000020545478407F2844443838444444283A
:1003B000384444287F385454541800087E090218E1
:1003C000A4A49C787F0804047800447D4000204069
:1003D000403D007F1028440000417F40007C0478AD
:1003E00004787C080404783844444438FC182424F5
:1003F0001818242418FC7C08040408485454542475
:1004000004043F44243C4040207C1C2040201C3CF1
:100410004030403C44281028444C9090907C4464E8
:10042000544C44000836410000007700000041367B
:10043000080002010204023C2623263C1EA1A16101
:10044000123A4040207A3854545559215555794133
:100450002254547842215554784020545579400C08
:100460001E527212395555555939545454593955EB
:100470005454580000457C410002457D420001452E
:100480007C407D1211127DF0282528F07C545545C2
:10049000002054547C547C0A097F4932494949322E
:1004A0003A4444443A324A4848303A4141217A3A3F
:1004B00042402078009DA0A07D3D4242423D3D400B
:1004C00040403D3C24FF2424487E4943662B2FFCBA
:1004D0002F2BFF0929F620C0887E09032054547968
:1004E000410000447D413048484A32384040227A39
:1004F000007A0A0A727D0D19317D2629292F2826B6
:100500002929292630484D402038080808080808BD
:100510000808382F10C8ACBA2F102834FA00007B16
:10052000000008142A142222142A14085500550029
:1005300055AA55AA55AAFF55FF55FF000000FF0018
:10054000101010FF00141414FF001010FF00FF1013
:1005500010F010F0141414FC001414F700FF000045
:10056000FF00FF1414F404FC141417101F10101FC4
:10057000101F1414141F00101010F0000000001FB2
:10058000101010101F10101010F010000000FF10BD
:100590001010101010101010FF10000000FF1400B9
:1005A00000FF00FF00001F10170000FC04F41414EB
:1005B0001710171414F404F40000FF00F7141414B7
:1005C00014141414F700F7141414171410101F1037
:1005D0001F141414F4141010F010F000001F101F5A
:1005E0000000001F14000000FC140000F010F010C8
:1005F00010FF10FF141414FF141010101F0000003F
:1006000000F010FFFFFFFFFFF0F0F0F0F0FFFFFF42
:100610000000000000FFFF0F0F0F0F0F3844443899
:1006200044FC4A4A4A347E02020606027E027E02E8
:1006300063554941633844443C04407E201E2006F3
:10064000027E020299A5E7A5991C2A492A1C4C7230
:1006500001724C304A4D4D303048784830BC625AB7
:10066000463D3E494949007E0101017E2A2A2A2A47
:100670002A44445F444440514A444040444A514023
:100680000000FF0103E080FF000008086B6B0836E4
:1006900012362436060F090F060000181800000055
:1006A0001010003040FF0101001F01011E00191D44
:1006B0001712003C3C3C3C00000000000001030716
:1006C0000F1F3F7F0080C0E0F0F8FCFE000020001C
:1006D0002300260029002C002F003200000100001A
:1006E00003010601090100000A0B02090C0D0E08A6
:1006F00007030401000000000000000000000000EB
:1007000000000000000000000000000000000000E9
:1007100000001211100000000000000000000000A6
:1007200000000000000000000000000000002100A8
:10073000240027002A002D003000330001010000B2
:10074000040107010A01DB40A4A62EAF2000A1C8C6
:10075000D300408DAED580A80102102020080810DB
:100760002040102040800201020108040201010221
:1007700004081020408080402010080402018004FA
:100780000201804020100804020108040201010255
:10079000040810204080010204081020408000005E
:1007A0002200250028002B002E0031003400020119
:1007B0000000050108010B010505050507050808EE
:1007C0000808020202020A0A0808040404040101DB
:1007D00001010101010103030303030303030407F0
:1007E00007070C0C0C0C0C0C0C0C02020202060687
:1007F0000606060606060B0B0B0B0B0B0B0B00007D
:10080000600000000000000000000000000000E0A8
:100810000000000000000000000000000001E000F7
:1008200000000000000000000000000001F00000D7
:10083000000000000000000000000003F0000000C5
:100840000000000000000000000007F000000000B1
:1008500000000000000000000007F8000000000099
:1008600000000000000000000FF800000003C000BE
:100870007E000001E0007F0FF800000003C000FED2
:10088000000001E000FFEFF800000003C000FE00E0
:100890000001E000FFFFF800000003C000F00000CE
:1008A000000F007FFE7FC0000003C000F0000000CA
:1008B0000F003FFE7FF83FF1FBCFFCFEF3BC3DEFA6
:1008C000E01FFE7FFF7FFBFFDFFEFEFFBC3DEFE092
:1008D0001FC6FFFF7FFBFFDFFEFEFFBC3DEFE00F0B
:1008E000E3C7FE787BC3DE1EF0FFBC3DEF0007FFD1
:1008F00087FC787BC3DE1EF0F83C3DEF0001FFFF74
:10090000F0007BC3C01EF0F03C3DEF0001F37FE040
:100910003FFBC3CFFEF0F03C3DEF0003E33F807FA1
:10092000FBC3DFFEF0F03C3DEF0007E73C00787BC7
:10093000C3DE1EF0F03C3DEF0007FFBE00787BC336
:10094000DE1EF0F03C3DEF0007FFFE00787BC3DECB
:100950001EF0F03C3DEF000FFFFE007FFBFFDFFECF
:10096000F0F03FFDEFE00FFFFF007FFBFFDFFEF049
:10097000F03FFDEFE00FF9FF003E79F9CF9EF0F078
:100980001F3DE7E01FF1FF00000000000000000035
:100990000000001F80FF007FFFFFFFFFFFFFFFFF42
:1009A000FFE01C007F007FFFFFFFFEB46D888D1805
:1009B000E000001F007FFFFFFFFE95AD7DB577E0F3
:1009C00000000F007FFFFFFFFEA5AD9D8D19E00029
:1009D0000006007FFFFFFFFEB5ADEDB57EE0000035
:1009E0000000000180000000000000000000038003
:1009F00000000000000000000007C0000000000030
:100A00000000000007C00000000000000000000F10
:100A1000C00000000000000000001FE00000000017
:100A200000000000001FE0000000000000000000C7
:100A30003FE00000000000000000003FF000000068
:100A40000000000000007FF0000000000000001F18
:100A5000F87FF0000000000000003FFE7FF0000083
:100A600000000000003FFF7FF000000000000000D9
:100A70001FFFFBE0000000000000000FFFF9FFC0B7
:100A80000000000000000FFFF9FFF8000000000068
:100A90000007FFF1FFFF00000000000003FC73FFF0
:100AA000FF80000000000001FE3FFFFF800000000B
:100AB000000000FF1E0FFF000000000000007FFE8E
:100AC0001FFC000000000000003FFFFFF8000000D6
:100AD000000000000FDFFFE0000000000000001F2A
:100AE00019FFC0000000000000003F3CFF000000B4
:100AF00000000000007E7CF8000000000000000004
:100B00007FFE7C0000000000000000FFFFFC0000F2
:100B1000000000000000FFFFFE00000000000000D9
:100B200000FFFFFE0000000000000001FFEFFE00DC
:100B300000000000000001FFCFFE000000000000E8
:100B40000003FF07FE0000000000000003FC07FE9A
:100B50000000000000000003F003FE0000000000A1
:100B60000000018000FE0000000000000000000006
:100B70007E000000000000000000003E00000000B9
:100B80000000000000000C000000000000078000D2
:100B9000FC000003C0000000078001FC000003C04F
:100BA000000000078001FC000003C0000000078077
:100BB00001E00000001E000000078001E0000000CE
:100BC0001E007FE3F79FF9FDE7787BDFC0FFF7FFAB
:100BD000BFFDFDFF787BDFC0FFF7FFBFFDFDFF78A6
:100BE0007BDFC0F0F787BC3DE1FF787BDE00F0F7EC
:100BF00087BC3DE1F0787BDE0000F787803DE1E0D7
:100C0000787BDE007FF7879FFDE1E0787BDE00FFE9
:100C1000F787BFFDE1E0787BDE00F0F787BC3DE1C0
:100C2000E0787BDE00F0F787BC3DE1E0787BDE001A
:100C3000F0F787BC3DE1E0787BDE00FFF7FFBFFD0A
:100C4000E1E07FFBDFC0FFF7FFBFFDE1E07FFBDFFF
:100C5000C07CF3F39F3DE1E03E7BCFC0000000008D
:100C600000000000000000FFFFFFFFFFFFFFFFFF8D
:100C7000FFC0FFFFFFFFFD68DB111A31C0FFFFFF60
:100C8000FFFD2B5AFB6AEFC0FFFFFFFFFD4B5B3BF5
:100C90001A33C0FFFFFFFFFD6B5BDB6AFDC0220064
:100CA000FF210000AD18551E11241FBECFEFD1E269
:100CB000DEBFCDBF00E00CBF12E0A0E0B2E0E2EA90
:100CC000FFE300E00BBF02C007900D92A239B1070D
:100CD000D9F724E0A2E9B2E001C01D92A23BB2071D
:100CE000E1F716E0C3E5D6E000E006C02197010970
:100CF000802FFE010E94861EC235D10780E00807C2
:100D0000A9F70E94C2190C94BF1F0C94000008950B
:100D100096E0899FD0011124AD50BC4F90967C93F2
:100D20006E935F9791E091969C939197E091600408
:100D3000F091610490915F04992339F0309751F05C
:100D4000811108C080910F041994309719F05C96B6
:100D50008C91FACF0895CF92DF92EF92FF920F938A
:100D60001F9396E0899FF0011124ED50FC4F11A2D2
:100D7000278D30A12130310551F178F02230310535
:100D800009F451C02330310509F452C01F910F916D
:100D9000FF90EF90DF90CF9008956623B9F361E064
:100DA00070E00E9488062FB7F89480914E039091CE
:100DB0004F03A0915003B09151032FBF80934B0478
:100DC00090934C04A0934D04B0934E04DFCF9FB793
:100DD000F894C0904E03D0904F03E0905003F090F1
:100DE00051039FBF00914B0410914C0420914D047E
:100DF00030914E04C01AD10AE20AF30A00915D0450
:100E000010915E0430E020E00C151D052E053F0515
:100E100050F462E070E01F910F91FF90EF90DF902F
:100E2000CF900C9488066111B1CF63E070E0F3CFEE
:100E300070E060E0F0CF08950895AF92BF92CF9236
:100E4000DF92EF92FF920F931F93CF93DF936C018A
:100E50007B018B01040F151FEB015E01AE18BF086B
:100E6000C017D10759F06991D601ED91FC9101901D
:100E7000F081E02DC6011995892B79F7C501DF9125
:100E8000CF911F910F91FF90EF90DF90CF90BF9087
:100E9000AF900895FC01538D448D252F30E0842FB1
:100EA00090E0821B930B541710F0CF960895019792
:100EB0000895FC01918D828D981761F0A28DAE0F7F
:100EC000BF2FB11D5D968C91928D9F5F9F73928F06
:100ED00090E008958FEF9FEF0895FC01918D828D32
:100EE000981731F0828DE80FF11D858D90E00895FF
:100EF0008FEF9FEF0895FC01918D228D892F90E057
:100F0000805C9F4F821B91098F739927089586E516
:100F100093E00E947B0721E0892B09F420E0822FD7
:100F20000895FC01A48DA80FB92FB11DA35ABF4F7E
:100F30002C91848D90E001968F739927848FA689D8
:100F4000B7892C93A089B1898C91837080648C932C
:100F5000938D848D981306C00288F389E02D8081DB
:100F60008F7D80830895EF92FF920F931F93CF930D
:100F7000DF93EC0181E0888F9B8D8C8D98131AC0D4
:100F8000E889F989808185FF15C09FB7F894EE89BB
:100F9000FF896083E889F989808183708064808318
:100FA0009FBF81E090E0DF91CF911F910F91FF9063
:100FB000EF900895F62E0B8D10E00F5F1F4F0F730B
:100FC0001127E02E8C8D8E110CC00FB607FCFACFC6
:100FD000E889F989808185FFF5CFCE010E949107CC
:100FE000F1CFEB8DEC0FFD2FF11DE35AFF4FF08297
:100FF0009FB7F8940B8FEA89FB8980818062CFCFFD
:10100000CF93DF93EC01888D8823B9F0AA89BB893F
:10101000E889F9898C9185FD03C0808186FD0DC02A
:101020000FB607FCF7CF8C9185FFF2CF808185FF4B
:10103000EDCFCE010E949107E9CFDF91CF910895C6
:1010400080E090E0892B29F00E94870781110E949F
:10105000000080E090E0892B49F080E090E0892B4F
:1010600029F00E94000081110E94000080E090E0C1
:10107000892B49F080E090E0892B29F00E94000044
:1010800081110E94000080E090E0892B49F080E00F
:1010900090E0892B29F00E94000081110C9400003F
:1010A00008958150823108F05AC0E82FF0E0882777
:1010B000E35AF74F8F4F0C94861E7D0881086F0806
:1010C00075087908AF0884088A088E08940898087B
:1010D0009C08A208A608AF08AA08B008B408809126
:1010E00080008F77809380000895809180008F7DAD
:1010F000F9CF80918000877FF5CF84B58F7784BD4D
:10110000089584B58F7DFBCF8091B0008F77809359
:10111000B00008958091B0008F7DF9CF809190004C
:101120008F77809390000895809190008F7DF9CF04
:1011300080919000877FF5CF8091A0008F7780937A
:10114000A00008958091A0008F7DF9CF8091A0002C
:10115000877FF5CF809120018F77809320010895BC
:10116000809120018F7DF9CF80912001877FF5CF7D
:10117000CF93DF93282F30E0F901EA51F94F8491A2
:10118000F901E85AF84FD491F901E854F84FC491A5
:10119000CC23A1F081110E945108EC2FF0E0EE0F5A
:1011A000FF1FE453F94FA591B491EC91ED2381E039
:1011B00090E009F480E0DF91CF91089580E090E025
:1011C000FACF862F0C94B8081F93CF93DF93282F64
:1011D00030E0F901EA51F94F8491F901E85AF84FEA
:1011E000D491F901E854F84FC491CC23A9F0162FFB
:1011F00081110E945108EC2FF0E0EE0FFF1FE25624
:10120000F84FA591B4918FB7F894EC91111108C0E3
:10121000D095DE23DC938FBFDF91CF911F9108958E
:10122000DE2BF8CF862F642F0C94E408CF93DF9346
:1012300090E0FC01E85AF84F24918854984FFC0143
:1012400084918823C9F090E0880F991FFC01E45D28
:10125000F84FA591B491FC01E256F84FC591D49195
:1012600061110DC09FB7F8948C91209582238C93C7
:101270008881282328839FBFDF91CF910895623012
:1012800051F49FB7F8943C91822F809583238C93DF
:10129000E8812E2BEFCF8FB7F894EC912E2B2C9367
:1012A0008FBFEACF862F642F0C9416093FB7F894AE
:1012B0008091430390914403A0914503B09146036C
:1012C00026B5A89B05C02F3F19F00196A11DB11DA1
:1012D0003FBFBA2FA92F982F8827BC01CD01620FDD
:1012E000711D811D911D42E0660F771F881F991F98
:1012F0004A95D1F708958F929F92AF92BF92CF9265
:10130000DF92EF92FF924B015C010E9456096B0144
:101310007C010E9456096C197D098E099F09683E5F
:10132000734081059105A8F321E0821A9108A10874
:10133000B10888EEC80E83E0D81EE11CF11C8114B0
:101340009104A104B10429F7FF90EF90DF90CF90B2
:10135000BF90AF909F908F900895EF92FF920F9360
:101360001F93CF93DF93EC01EC80FD806E157F051A
:101370000CF070C057FF04C0240F351F50E040E050
:101380008E819F81FA01E20FF31F8E179F071CF4D5
:101390009C01241B350B121613060CF05BC0922F18
:1013A000842F8695869586958E9DD0018F9DB00D54
:1013B00011246A0F7B1FAF8DB8A1A60FB71F47700E
:1013C00049F188E0841B482F682F70E0FB01EC5343
:1013D000F94FE491281708F063C0621B71092FEFE1
:1013E00030E002C0359527956A95E2F7E223013097
:1013F000110539F0B0F10230110561F58C91E82743
:1014000002C08C91E82BEC93941720F12C813D8144
:10141000A20FB31FE92FE41BE83078F0023011056A
:1014200021F58E2F9C9190959C932C813D81A20F4C
:10143000B31F88508830B0F7E770EE2359F0F0E022
:10144000E454F94FE49101301105F9F010F1023044
:10145000110519F1DF91CF911F910F91FF90EF903E
:101460000895E0958C91E823CECF81E00115110518
:1014700009F480E081959E2F8C932C813D81A20FF1
:10148000B31F98509830C0F7D7CF8C91E82BEC93CE
:10149000E1CFE0958C91E823FACF8C91E827F7CF44
:1014A0000130110509F4ADCFE0F20230110509F465
:1014B000A5CFAE0DBF1DAECF0F931F93CF93DF937C
:1014C00077FF04C0260F371F70E060E0DC01149640
:1014D000CD91DC91FB01E20FF31FCE17DF071CF467
:1014E0009E01261B370B121613064CF5FA0157FD09
:1014F0003796A3E0F595E795AA95E1F7EC9FD00123
:10150000ED9FB00DFC9FB00D11246A0F7B1FDC0115
:101510005F96ED91FC91E60FF71F4770552781E02C
:1015200090E001C0880F4A95EAF7482F0130110575
:1015300059F0A8F02E0F3F1F02301105E1F0DF91A6
:10154000CF911F910F9108952E0F3F1FE217F307C0
:10155000B1F38191DF011197842B8C93F7CF8095A4
:101560002E0F3F1FE217F30751F39191DF011197FF
:1015700098239C93F7CFE217F30709F38191DF01DA
:10158000119784278C93F7CF0F931F93FA01DC01F7
:1015900056964C9156974230E9F04330A1F14130D4
:1015A00061F514964D915C91DA01AE1BBF0BFD0104
:1015B000E21BF30B77FD0BC0DC0116964D915C919D
:1015C0006417750724F4AB01BF010E945C0A1F91E8
:1015D0000F91089514964D915C91DA01A61BB70BFB
:1015E000BD0161507109DC0116964D915C91DA01E3
:1015F000AE1BBF0BFD01E21BF30B77FDE8CFAF0184
:101600000E94AD09E4CF16964D915C91DA01A61BBC
:10161000B70BBD0161507109CDCF0F931F93FA0134
:10162000DC0156964C9156974230A9F0433091F127
:10163000413019F514964D915C91DA01AE1BBF0B48
:10164000FD013197F7FD04C0AB01BF010E94AD0958
:101650001F910F91089514964D915C91DA01A61B8C
:10166000B70BBD01DC0116964D915C91DA01AE1B02
:10167000BF0BFD013197621B730BF7FDE9CFDC0156
:1016800016964D915C91E417F50714F7AF010E948F
:101690005C0ADECF16964D915C91DA01A61BB70B62
:1016A000BD01621B730BCECFFC0177FD64C080854A
:1016B0009185681779070CF05EC057FD5CC0828584
:1016C0009385481759070CF056C086898230B1F0CF
:1016D000833029F1813041F484819581841B950BFD
:1016E000AB01BC01615071092130310509F108F4E9
:1016F00043C02230310509F463C008958481958187
:10170000DC01A61BB70BBD01615071098681978171
:10171000DC01A41BB50BAD0141505109E5CF868119
:101720009781861B970BBA01AC0141505109DCCF60
:10173000CA0157FD0796A3E095958795AA95E1F70D
:10174000A481B5818A9F90018B9F300D9A9F300DA7
:101750001124620F731F078CF0A1E02DE60FF71F15
:101760004770552721E030E001C0220F4A95EAF783
:101770008081822B80830895CA0157FD079633E04C
:10178000959587953A95E1F7A481B5818A9F900157
:101790008B9F300D9A9F300D1124620F731F078CA1
:1017A000F0A1E02DE60FF71F4770552781E090E08C
:1017B00001C0880F4A95EAF7809590818923DACF96
:1017C000CA0157FD079623E0959587952A95E1F77D
:1017D000A481B5818A9F90018B9F300D9A9F300D17
:1017E0001124620F731F078CF0A1E02DE60FF71F85
:1017F0004770552721E030E001C0220F4A95EAF7F3
:1018000080818227B7CF08958EBD00000DB407FEFA
:10181000FDCF8EB508958CBD9DBD08950895FC0142
:101820006370668B8481958126813781613039F0C0
:10183000633029F091878087338722870895318725
:1018400020879387828708952F923F924F925F92CD
:101850006F927F928F929F92AF92BF92CF92DF92C0
:10186000EF92FF920F931F93CF93DF93CDB7DEB725
:101870006A970FB6F894DEBF0FBECDBF9A8F898FDF
:101880007A8369834A01D22E18870F833701BC2CD3
:10189000DC0159962D913C915A972115310509F09B
:1018A00015C118968D919C911997681779070CF0BE
:1018B000D7C11A968D919C91481759070CF0D0C149
:1018C0004C2C512CB6E0CB9E600D711D11247C87F1
:1018D0006B87161617060CF0C3C1EA2DF0E0FA87E5
:1018E000E98793E0EE0FFF1F9A95E1F7F88BEF87FA
:1018F000CF01840F951F181619060CF0B1C1A98DE0
:10190000BA8D58968C91811104C0BFEABD1508F4B8
:10191000D394A98DBA8DED91FC9111970284F38532
:10192000E02DCD011995B5E0DB9EC0011124E981C0
:10193000FA81FC83EB83312C212C9C0124543E4FF3
:10194000388F2F8B4A2D50E05E8B4D8BEF89F88DB1
:10195000E20DF31D44919E828D82D12CC12C6981B0
:101960007A81620D731D7A8B698B842F90E09C8B3A
:101970008B8BE98DFA8DA081B18140FF82C0F1E0AF
:10198000BF126FC0AF126DC01C96ED91FC912F81FC
:101990003885A4014C0D5D1D69897A89898D9A8DE0
:1019A0001995EB89FC89F595E7954E2F5FEFC51AE0
:1019B000D50A6D817E818D899E89680F791F7E830E
:1019C0006D8398E0C916D10481F6AFEF2A1A3A0A5E
:1019D000EB81FC81E40DF51DFC83EB83F5E02F1614
:1019E000310409F0B3CF2F81388526153705B9F0BA
:1019F000A98DBA8DED91FC91B1E0BB1257C0AB122D
:101A000055C069817A816B5F7F4F0088F189E02D35
:101A1000830128E030E0A401898D9A8D1995A98D64
:101A2000BA8DED91FC9111970688F789E02DCD01D3
:101A30006A960FB6F894DEBF0FBECDBFDF91CF918F
:101A40001F910F91FF90EF90DF90CF90BF90AF90DC
:101A50009F908F907F906F905F904F903F902F90CE
:101A600019941E96ED91FC91EF80F88409851A85F2
:101A700092014D815E816B817C81898D9A8D199552
:101A800090CF2F8138852615370509F48ACF31E0AC
:101A9000B31207C0A31205C01C96ED91FC919301EF
:101AA00078CF1E96ED91FC917301E0CF6B857C851C
:101AB000641975090684F785E02D73010F8518896F
:101AC0009201A401898D9A8D1995A9CFF9013496B7
:101AD0009491329745915491D91AB7E0DB9E400D0D
:101AE000511D1124F901259134913C8B2B8BFA0166
:101AF00025903490FA013296749031963491398B56
:101B0000329664903196449041E04C1518F04A1595
:101B100008F07FC0662D062C000C770B7C836B834E
:101B2000842D042C000C990B9E838D83A98DBA8D76
:101B3000ED91FC9111970284F385E02DCD0119956B
:101B4000512CD12CC12CEA2DF0E0FA87E9872B2DFE
:101B500030E03C872B87A401440D511D47FC5A956A
:101B6000588F4F8B69817A81660D711D67FC7A955C
:101B70007E876D877989C71608F051CF2C2D30E00C
:101B80004D815E81420F531FA985BA854A9FC001CE
:101B90004B9F900D5A9F900D1124FC01E80DF91DEB
:101BA000F88BEF87852D612C4F89588D420F531F7D
:101BB0005E8B4D8B671408F050C044244394480E4C
:101BC000877041F4C1010196EB89FC89E20DF31D98
:101BD000D4901C01D7FE19C0A98DBA8DED91FC914E
:101BE000662D70E0B1E0BB1219C0AB1217C02D8595
:101BF0003E85620F731F0484F585E02D2F813885A3
:101C00004D895E89898D9A8D1995DD0C6394842D9B
:101C1000D1CF1E821D821C821B8288CF4B815C81AA
:101C2000640F751FAB85BC856A9FC0016B9F900DCB
:101C30007A9F900D112469817A81680F791F06843B
:101C4000F785E02DEF80F88409851A859D014F8581
:101C50005889898D9A8D1995D8CF570CC3948ACFFE
:101C60006A960FB6F894DEBF0FBECDBFDF91CF915D
:101C70001F910F91FF90EF90DF90CF90BF90AF90AA
:101C80009F908F907F906F905F904F903F902F909C
:101C900008958F929F92AF92CF92EF92FF920F93FF
:101CA0001F93CF93DF93EC01262F898D9A8D009798
:101CB00009F051C06A30D1F41D861C868D8948E038
:101CC000849F900111248E859F85820F931F9F878B
:101CD0008E8781E090E0DF91CF911F910F91FF906F
:101CE000EF90CF90AF909F908F9008956D3089F3D3
:101CF000CC88AD888F898823C1F08C859D8536E09E
:101D0000C39E800D911D1124488559854817590798
:101D100064F44E855F851D861C8638E0A39EC00155
:101D20001124840F951F9F878E87EA88FB88088976
:101D300019894E855F856C857D85CE010E94240CB6
:101D40002C898C859D8546E0249F800D911D112452
:101D50009D878C87BECF6A3069F41D861C86FC0186
:101D60003896E4912D898E859F85E29F800D911D87
:101D70001124ADCF6D3009F4ACCFFC013496349111
:101D8000631708F4A6CF3296E491E61708F4A1CFC2
:101D9000FC01329685909490462F431B342F47E0E8
:101DA000349F800C911C1124F401329634913196A9
:101DB000E4913323A9F1EE2399F1CC88F40135960F
:101DC000E491AD884F89442301F10E2E000CFF0BE6
:101DD000E30FF11DCE9EA001CF9E500D11246C8506
:101DE0007D85460F571F68857985641775076CF4E4
:101DF0004E855F851D861C86FC013896E491AE9E5B
:101E0000400D511D11245F874E87EA88FB880889A1
:101E100019894E855F856C857D85CE010E94240CD5
:101E2000F4013496E4912C898C859D85E29F800D88
:101E3000911D11248DCF6F927F928F929F92AF92BE
:101E4000BF92CF92DF92EF92FF920F931F93CF93A7
:101E5000DF93EC016B015A0139014801E881F981F6
:101E60000284F385E02D1995E881F9810288F389D0
:101E7000E02D87019301A501B601CE011995A501B9
:101E8000480D591D41505109E881F9810288F389B3
:101E9000E02D9301B601CE011995E881F981008802
:101EA000F189E02D9401A501B601CE011995C60C6A
:101EB000D71CB60161507109E881F9810088F18968
:101EC000E02D9401A501CE011995E881F9810688DC
:101ED000F789E02DCE01DF91CF911F910F91FF90F7
:101EE000EF90DF90CF90BF90AF909F908F907F90BA
:101EF0006F9019946F927F928F929F92AF92BF9240
:101F0000CF92DF92EF92FF920F931F93CF93DF93C5
:101F10005C01EB016A01490138018701DC01ED91A7
:101F2000FC916217730719F5641675062CF0962D4F
:101F3000872D3A01C92ED82E9601261937092F5F11
:101F40003F4F048CF58DE02DA301BE01C50119950D
:101F5000DF91CF911F910F91FF90EF90DF90CF9085
:101F6000BF90AF909F908F907F906F90089546158F
:101F7000570591F42617370724F0892D4B01C22FFE
:101F8000D82F9E01281939092F5F3F4F068CF78DF6
:101F9000E02DA601B401DACF0284F385E02D199576
:101FA000D501ED91FC910488F589E02D8301940120
:101FB000A601BE01C5011995D501ED91FC910688D8
:101FC000F789E02DC501DF91CF911F910F91FF900F
:101FD000EF90DF90CF90BF90AF909F908F907F90C9
:101FE0006F901994EF92FF920F931F93DC011A9652
:101FF0000D911C911B9718962D913C911997ED917D
:10200000FC9100A0F1A1E02D7B0150E040E070E0E8
:1020100060E019951F910F91FF90EF9008954F92F6
:102020005F926F927F928F929F92AF92BF92CF9268
:10203000DF92EF92FF920F931F93CF93DF936C0188
:102040002B015A0139014801DC01ED91FC91028418
:10205000F385E02D1995E201640C751CD601ED9114
:10206000FC91C615D7055CF40088F189E02D870145
:102070009401A501BE01C60119952196EFCF0688EE
:10208000F789E02DC601DF91CF911F910F91FF904D
:10209000EF90DF90CF90BF90AF909F908F907F9008
:1020A0006F905F904F9019948F929F92AF92BF92D2
:1020B000CF92DF92EF92FF920F931F93CF93DF9314
:1020C000EC015B014A016901E881F9810284F38531
:1020D000E02D199595012C0D3D1D21503109E88108
:1020E000F9810488F589E02D78018401A401B50106
:1020F000CE011995E881F9810688F789E02DCE0196
:10210000DF91CF911F910F91FF90EF90DF90CF90D3
:10211000BF90AF909F908F9019948F929F92AF92A3
:10212000BF92CF92DF92EF92FF920F931F93CF93C4
:10213000DF93EC015B014A0169017801E881F981D3
:102140000284F385E02D1995C80CD91C8601015035
:102150001109E881F9810488F589E02D9501A40130
:10216000B501CE011995E881F9810688F789E02D3E
:10217000CE01DF91CF911F910F91FF90EF90DF90F3
:10218000CF90BF90AF909F908F901994EF92FF9255
:102190000F931F93DC01ED91FC9100A0F1A1E02DC4
:1021A00019951F910F91FF90EF9008950F931F9332
:1021B000DC01ED91FC91068CF78DE02D19951F91B6
:1021C0000F9108950F931F93DC01ED91FC91048C06
:1021D000F58DE02D19951F910F910895DC01ED917A
:1021E000FC910084F185E02D19943F924F925F920B
:1021F0006F927F928F929F92AF92BF92CF92DF9217
:10220000EF92FF920F931F93CF93DF935C017B01BB
:102210004A016901390187E0680E711C93E07594E9
:1022200067949A95E1F72B01400E511E10E000E0F3
:10223000312CD0E0C0E0CE0187709927330C892B78
:1022400059F4FE0183E0F595E7958A95E1F7E00FF3
:10225000F11FE80DF91D349037FE0AC021E030E08F
:10226000A701B5016C0F7D1F8EE694E00E94EE1071
:102270002196CC16DD06F9F68FEFE81AF80A060D5E
:10228000171DE414F504A9F6DF91CF911F910F916A
:10229000FF90EF90DF90CF90BF90AF909F908F9086
:1022A0007F906F905F904F903F9008952F923F9254
:1022B0004F925F926F927F928F929F92AF92BF9256
:1022C000CF92DF92EF92FF920F931F93CF93DF9302
:1022D00000D000D0CDB7DEB73C016A013E832D832C
:1022E000FC82EB825801A41AB50AB7FE03C0B19470
:1022F000A194B1088D809E80861A970A97FE03C02C
:102300009194819491088A149B045CF0902F812F02
:102310000D811E819D838E839C2D8D2D6B01692FD8
:10232000782F0C151D055CF09D818E817E836D8359
:10233000692F782F902F812F8601C92ED82E160154
:10234000201A310A2B012D813E81421A530A57FE71
:1023500003C0519441945108710137FE03C03FEF0F
:10236000E31AF30AF594E7948D819E818617970707
:102370005CF5A1E0B0E0BA83A983C016D1064CF1A8
:10238000D301ED91FC910484F585E02D2B813C81F6
:10239000A8016D817E818A149B041CF04D815E81B1
:1023A000B801C3011995E418F508F7FE0AC02D819C
:1023B0003E8189819A81280F391F3E832D83E20C4B
:1023C000F31C0F5F1F4FD9CF2FEF3FEF3A832983C5
:1023D000D4CF26960FB6F894DEBF0FBECDBFDF91E7
:1023E000CF911F910F91FF90EF90DF90CF90BF9012
:1023F000AF909F908F907F906F905F904F903F90A5
:102400002F90089508952091F802260F3327331F47
:1024100021323105ECF420911C03FC0190E080E0B6
:10242000243069F082E00895A091F8022191AC0176
:1024300048525D4FA40FB52FB11D2C9301968617FE
:1024400098F38091F802680F6093F80280E0089595
:1024500081E0089510921C0381E080931E03109286
:102460001D0361E084E10E94E40861E085E10E94CF
:10247000E408E9EBF0E080818E7F808380818D7FAE
:10248000808388E48093B80085E48093BC0008953D
:10249000CF93DF9391E09093D7028823B9F0C09156
:1024A000B800D091BA008091BC008A7B8093BC00B8
:1024B00060E084E10E94E40860E085E10E94E408B5
:1024C0000E942A12D093BA00C093B800DF91CF9136
:1024D0000895E0914D0380914C03E81730F4F0E04B
:1024E000EE54FD4F808190E008958FEF9FEF0895A7
:1024F00090914D0380914C032FEF3FEF981748F4D4
:10250000E92FF0E0EE54FD4F208130E09F5F909383
:102510004D03C901089580914C0390914D03891B8F
:10252000990B0895CF92DF92EF92FF920F931F9332
:10253000CF93DF937C01CB018A01209155032223A5
:1025400089F0EB016B01C40ED51ECC15DD0569F0D9
:102550006991D701ED91FC910190F081E02DC701C7
:102560001995F3CF642F0E940312C801DF91CF9118
:102570001F910F91FF90EF90DF90CF900895CF9330
:10258000DF931F92CDB7DEB76983209155032223D5
:10259000F9F020915203203258F021E030E0FC01A4
:1025A0003383228390E080E00F90DF91CF910895F4
:1025B00080915303E82FF0E0EE56FD4F9981908310
:1025C0008F5F809353038093520381E090E0ECCFC0
:1025D00061E0CE0101960E940312F7CFCF92DF9205
:1025E000EF92FF920F931F93CF93DF93D0915203FB
:1025F00081E0D13208F09CC0C09154030E9456097A
:102600006B017C0180911C0381116CC082E080937E
:102610001C0381E080931E038FEF80931B031092B5
:102620004003D0933F03A2E9B2E0EFE1F3E080E0A2
:10263000D8138DC01092410380914103CC0FC82B59
:10264000C093410380911D03813009F084C0109232
:102650001D030E9456096B017C0180914103809308
:10266000BB008091D3029091D402A091D502B09189
:10267000D602892B8A2B8B2BA1F00E945609009140
:10268000D3021091D4022091D5023091D6026C1958
:102690007D098E099F09061717072807390708F4CF
:1026A00042C08091BC0083FDD8CF85EC8093BC00F4
:1026B0000E9456096B017C0180911C03823009F451
:1026C0004CC080911B038F3F09F469C080911B03AC
:1026D000803209F466C080911B03803309F463C023
:1026E00084E026C08091D3029091D402A091D502BB
:1026F000B091D602892B8A2B8B2B09F483CF0E94B1
:1027000056090091D3021091D4022091D502309144
:10271000D6026C197D098E099F090617170728072D
:10272000390708F06FCF8091D2020E94481285E0ED
:10273000109253031092520310925503DF91CF91E0
:102740001F910F91FF90EF90DF90CF9008959D9192
:1027500091938F5F6DCF85EEA9CF8091D302909139
:10276000D402A091D502B091D602892B8A2B8B2B53
:1027700009F4A2CF0E9456090091D3021091D4020D
:102780002091D5023091D6026C197D098E099F09DE
:10279000061717072807390708F08ECFC4CF80E047
:1027A000C7CF82E0C5CF83E0C3CFEF92FF920F93F4
:1027B0001F93CF93DF937C01C62F80918B04909160
:1027C0008C04009709F459C020918F0431E03093B4
:1027D0005503209354031092530310925203DC01CB
:1027E000ED91FC910190F081E02D60E01995870159
:1027F000EE24E394F12CD1E0C15080918B049091B0
:102800008C04CF3F91F1B0E2EB16F104D8F00E94B6
:10281000EE1280918B0490918C0420918F04D093C0
:102820005503209354031092530310925203DC017A
:10283000ED91FC910190F081E02D60E01995EE247E
:10284000E394F12C80918B0490918C04F8016491B5
:10285000DC01ED91FC910190F081E02D1995BFEF25
:10286000EB1AFB0A0F5F1F4FC7CFDF91CF911F916C
:102870000F91FF90EF900C94EE12E0919B04F09179
:102880009C0490818091A104809589238083870195
:10289000C15008F438C0F801849120918904309126
:1028A0008A04232B29F00E94040C0F5F1F4FF0CFE6
:1028B00028E030E040E8E0919704F091980490918E
:1028C0009F04582F5423D9F05081952B9083E09189
:1028D0009904F0919A0490815091A004952B9083D3
:1028E000E0919904F0919A0450819091A004909500
:1028F00095239083469521503109E9F6D6CF508132
:1029000090959523E3CFDF91CF911F910F91FF9089
:10291000EF9008951F93CF93DF93EC018D8D9E8DE3
:10292000009721F1162F29A131E030935503209310
:1029300054031092530310925203DC01ED91FC9169
:102940000190F081E02D60E019958D8D9E8DDC0168
:10295000ED91FC910190F081E02D612F19958D8D05
:102960009E8DDF91CF911F910C94EE12ADA5BEA567
:102970009C918BA9809589238C938B8D9C8D892B21
:1029800031F0862FDF91CF911F910C94040C28E039
:1029900030E080E8A9A5BAA599A9462F4823C1F03F
:1029A0004C91942B9C93ABA5BCA59C914AA9942BCC
:1029B0009C93ABA5BCA54C919AA9909594239C930C
:1029C00086952150310931F7DF91CF911F910895FC
:1029D0004C9190959423E6CFDF92EF92FF920F9364
:1029E0001F93CF93DF9380918B0490918C04892B5C
:1029F00009F498C02091A3043091A4044091A50447
:102A00005091A60460E074E284EF90E00E94641E9E
:102A10002051310941095109569547953795279518
:102A20002093B80065E08EE99CE00E94D513609188
:102A3000720461508EE694E00E948A14209174041E
:102A400030917504C901079697FD079633E0959577
:102A500087953A95E1F72091720430917304829F33
:102A60008001839F100D929F100D1124C0918D0441
:102A7000D0918E0480918B0490918C040C0F1D1FBB
:102A8000009709F48FC020918F0431E030935503F3
:102A9000209354031092530310925203DC01ED91E2
:102AA000FC910190F081E02D60E41995EE24E3940F
:102AB000F12CDD24D39480918B0490918C040C171D
:102AC0001D0709F446C0B0E2EB16F104D8F00E94ED
:102AD000EE1280918B0490918C0420918F04D092FF
:102AE0005503209354031092530310925203DC01B8
:102AF000ED91FC910190F081E02D60E41995EE24B8
:102B0000E394F12C80918B0490918C046991DC0109
:102B1000ED91FC910190F081E02D1995BFEFEB1A3A
:102B2000FB0AC9CF8091890490918A04892B31F0E6
:102B30008091AC049091AD040E940B0CE0919D0437
:102B4000F0919E0490818091A204809589238083D6
:102B500069CF0E94EE1280918B0490918C04892B96
:102B600009F461C02091A7043091A8044091A90400
:102B70005091AA0460E074E284EF90E00E94641E29
:102B800020513109410951095695479537952795A7
:102B90002093B800DF91CF911F910F91FF90EF909C
:102BA000DF900895E0919B04F0919C0480819091C6
:102BB000A104892B80830C171D0769F2899120914C
:102BC000890430918A04232B19F00E94040CF3CF5E
:102BD00028E030E040E8E0919704F091980490916B
:102BE0009F04582F5423D9F05081952B9083E09166
:102BF0009904F0919A0490815091A004952B9083B0
:102C0000E0919904F0919A0450819091A0049095DC
:102C100095239083469521503109E9F6CCCF508118
:102C200090959523E3CFE0919D04F0919E048081DF
:102C30009091A204892B8083ADCF1F93CF93DF9314
:102C4000EC01162F8D8D9E8D892BB1F12DA93EA9FA
:102C50004FA958AD60E074E284EF90E00E94641EDA
:102C600020513109410951095695479537952795C6
:102C70002093B80066EA111167EACE010E948A1417
:102C80008D8D9E8D892B41F129AD3AAD4BAD5CAD5B
:102C900060E074E284EF90E00E94641E20513109EC
:102CA0004109510956954795379527952093B800C6
:102CB000DF91CF911F9108958B8D9C8D892B21F0F1
:102CC0008EAD9FAD0E940B0CEFA5F8A990818CA949
:102CD000809589238083CECFEFA5F8A980819CA918
:102CE000892B8083E5CF90E080E0089520917404E3
:102CF00030917504C901079697FD079623E09595D5
:102D000087952A95E1F72091720430917304829F90
:102D1000A001839F500D929F500D112470E060E040
:102D200080918D0490918E040C94B81F0E94B31F63
:102D3000FB0101900020E9F73197AF01461B570BCB
:102D4000DC01ED91FC910280F381E02D199485ED79
:102D50008093BC008091D3029091D402A091D502BF
:102D6000B091D6020796A11DB11D23E0B695A79597
:102D7000979587952A95D1F72091BC0024FD03C033
:102D800010921C0308954091D3025091D402609197
:102D9000D5027091D602452B462B472B69F300973D
:102DA000A105B10541F025E32A95F1F7000001974F
:102DB000A109B109E1CF8091D2020C9448121F926F
:102DC0000F920FB60F9211240BB60F922F933F93D1
:102DD0004F935F936F937F938F939F93AF93BF9323
:102DE000EF93FF9386E593E00E949107FF91EF91A7
:102DF000BF91AF919F918F917F916F915F914F9113
:102E00003F912F910F900BBE0F900FBE0F901F9010
:102E100018951F920F920FB60F9211240BB60F92B6
:102E20002F938F939F93EF93FF93E0916603F0911D
:102E300067038081E0916C03F0916D0382FD1DC0FA
:102E4000908180916F038F5F8F7320917003821741
:102E500041F0E0916F03F0E0EA5AFC4F958F8093C8
:102E60006F03FF91EF919F918F912F910F900BBE68
:102E70000F900FBE0F901F9018958081F2CF1F9278
:102E80000F920FB60F9211242F933F938F939F931E
:102E9000AF93BF9380914E0390914F03A091500345
:102EA000B09151033091420323E0230F2D3758F5A1
:102EB0000196A11DB11D2093420380934E03909370
:102EC0004F03A0935003B09351038091430390911B
:102ED0004403A0914503B09146030196A11DB11D85
:102EE0008093430390934403A0934503B093460318
:102EF000BF91AF919F918F913F912F910F900FBEF6
:102F00000F901F90189526E8230F0296A11DB11D62
:102F1000D2CF1F920F920FB60F9211240BB60F92C1
:102F20002F933F934F935F936F937F938F939F93D1
:102F3000AF93BF93EF93FF938091B900887F803662
:102F400009F44DC008F040C0883209F4A9C028F542
:102F5000803109F49DC0C8F4882309F4FBC088308F
:102F600009F496C0FF91EF91BF91AF919F918F911E
:102F70007F916F915F914F913F912F910F900BBE79
:102F80000F900FBE0F901F901895883109F488C0DC
:102F9000803241F780931B0314C0803409F49DC034
:102FA00040F48033B9F38833E9F680931B0385EC52
:102FB000B0C0803509F485C0883509F496C08834DE
:102FC00089F60E94A716CECF883909F48CC038F54F
:102FD000883729F050F4883611F0803719F683E0ED
:102FE00080931C0310921A0357C0883809F47BC0E1
:102FF000803919F0803809F0B5CF80911A038032FA
:1030000008F071C0E0911A0381E08E0F80931A03DB
:103010008091BB00F0E0E650FD4F80833DC0803BD7
:1030200039F0E0F4803A09F479C0883A09F09ACF8F
:1030300084E080931C031092F9021092F802E09150
:103040004A03F0914B0319958091F80281110FC04A
:1030500081E08093F8021092D80209C0803C09F404
:10306000A6CF883C09F4A3CF883B09F07BCFE09141
:10307000F90281E08E0F8093F902F0E0E852FD4FF3
:1030800080818093BB009091F9028091F80229C061
:10309000809141038093BB0085EC8093BC0062CF9C
:1030A0009091400380913F03981758F5E0914003B9
:1030B00081E08E0F80934003F0E0E15EFC4F808161
:1030C000E9CFE091400381E08E0F8093400380912F
:1030D000BB00F0E0E15EFC4F808390914003809163
:1030E0003F039817C8F285E8D8CFE091400381E00C
:1030F0008E0F809340038091BB00F0E0E15EFC4FB7
:10310000808380911E0381115CCF81E080931D0339
:1031100084EA8093BC0010921C0324CF85EC80933A
:10312000BC0010921C0380911A03803230F4E091AD
:103130001A03F0E0E650FD4F108260911A0370E030
:10314000E0914803F09149038AEF92E019951092BB
:103150001A0308CF10921B0334CF10925903109218
:10316000580388EE93E0A0E0B0E080935A03909378
:103170005B03A0935C03B0935D032DE132E03093D9
:1031800057032093560325EC30E0309363032093DC
:10319000620324EC30E0309365032093640320EC59
:1031A00030E0309367032093660321EC30E03093E6
:1031B00069032093680322EC30E030936B03209383
:1031C0006A0326EC30E030936D0320936C03109279
:1031D0006F03109270031092710310927203109299
:1031E0006504109264048093660490936704A0932E
:1031F0006804B09369048FE292E090936304809333
:103200006204109271041092700420E830E0309350
:1032100073042093720480E490E09093750480938B
:103220007404309377042093760490937904809308
:1032300078041092840410927B0410927A04109205
:103240007D0410927C0481E0809383048093820447
:103250002FEF3FEF309381042093800430937F045D
:1032600020937E0480938504109286041092880433
:10327000109287048BE492E090936F0480936E0425
:1032800010928A041092890482E694E090938C0450
:1032900080938B0410928E0410928D048FEF809394
:1032A0009204809393048093940480939504809374
:1032B000960480E89AE1A6E0B0E08093A30490939E
:1032C000A404A093A504B093A60480EA96E8A1E024
:1032D000B0E08093A7049093A804A093A904B093AE
:1032E000AA0480E58093AC041092AD041092F5031B
:1032F0001092F9031092F8031092FA0381E492E01D
:103300009093F4038093F303EFE0F4E010821482CF
:1033100013821582369684E0EB34F807B9F783E020
:1033200092E0909356048093550480E092E090934D
:1033300058048093570484E08093590483E0809379
:103340005A0487E092E090935404809353048AE0F7
:1033500090E090935C0480935B0484EF91E0909301
:103360005E0480935D0410926104109260041092D8
:103370004F04109250041092510410925204109273
:103380005F040895789484B5826084BD84B58160BB
:1033900084BD85B5826085BD85B5816085BD809120
:1033A0006E00816080936E00109281008091810098
:1033B0008260809381008091810081608093810090
:1033C000809180008160809380008091B100846052
:1033D0008093B1008091B00081608093B0008091B3
:1033E0009100826080939100809191008160809330
:1033F0009100809190008160809390008091A10065
:1034000082608093A1008091A10081608093A100DF
:103410008091A00081608093A00080912101826052
:10342000809321018091210181608093210180910D
:10343000200181608093200180917A0084608093D4
:103440007A0080917A00826080937A0080917A007D
:10345000816080937A0080917A00806880937A00FE
:103460001092C100E0916603F091670382E08083CF
:10347000E0916203F09163031082E0916403F091A4
:1034800065038FEC808310926E03E0916A03F091E4
:103490006B0386E08083E0916803F091690380818B
:1034A00080618083E0916803F09169038081886086
:1034B0008083E0916803F091690380818068808354
:1034C000E0916803F091690380818F7D8083109281
:1034D0004D0310924C0310925303109252030E941A
:1034E0002A128BE197E090934B0380934A038CE17F
:1034F00097E0909349038093480380918D049091C5
:103500008E04892B11F10E9476162091740430915B
:1035100075048091720490917304213231050CF08E
:103520009FC0B9016052710977FF02C06F5F7F4F82
:10353000759567958357910997FD019600E210E014
:1035400023E730E04EEF57E09EC0209174043091A5
:103550007504C901079697FD0796B3E09595879581
:10356000BA95E1F72091720430917304AC01429F47
:10357000C001439F900D529F900D11240E948E1EFA
:1035800090938E0480938D04892B09F0BCCF0E9408
:10359000761681E0809382048093830481E090E03A
:1035A000909381048093800490937F0480937E04A1
:1035B00010927B0410927A0410927D0410927C0485
:1035C00063E772E08EE694E00E94981664E872E089
:1035D0008EE694E00E9498160E94EC1433243394F3
:1035E000812C912C5401839466246A94762C56E0A5
:1035F000252E30925F048FB7F89440914E0350917E
:103600004F0360915003709151038FBF80914F041D
:1036100090915004A0915104B0915204481B590B51
:103620006A0B7B0B80915B0490915C04B0E0A0E09E
:1036300084179507A607B70708F005C3C0E0809177
:103640005904C81708F002C2E0915504F0915604DD
:10365000EC0FF11D62E080810E941609CF5FEFCF71
:10366000B9016054710977FF02C06F5F7F4F759594
:1036700067958255910997FD019600E410E022E5D7
:1036800030E04EED59E0959587950E94F51082E067
:103690008093900480918B0490918C04892B09F481
:1036A000DFC08CE380938F0410924D0310924C0383
:1036B00010925303109252030E942A128BE197E05A
:1036C00090934B0380934A038CE197E090934903D6
:1036D000809348038091960487FD1EC061E00E949C
:1036E000160961E0809196040E94E40861E070E0B0
:1036F00080E090E00E947B0960E0809196040E9447
:10370000E4086AE070E080E090E00E947B0961E0FC
:10371000809196040E94E40880918B0490918C041F
:10372000892B09F45CC12091A3043091A404409139
:10373000A5045091A60460E074E284EF90E00E943A
:10374000641E205131094109510956954795379515
:1037500027952093B80064E084E597E00E94D51394
:103760006091740461508EE694E00E948A1464E0D3
:1037700080E597E00E94D5138091900460E181304C
:1037800009F064E18EE694E00E948A1464E08CE41F
:1037900097E00E94D5138FE88093AB048091720468
:1037A000909173048038910509F032C180917404BE
:1037B000909175048034910509F03AC1809190048C
:1037C000813009F023C18FE98093AB04C2E16AED37
:1037D0008EE694E00E948A146C2F8EE694E00E949C
:1037E0008A1461E88EE694E00E948A146091AB042A
:1037F0008EE694E00E948A1469ED8EE694E00E94C1
:103800008A148091900462E2813009F061EF8EE6C3
:1038100094E00E948A1466E086E497E00E94D51343
:1038200080918B0490918C04892B09F405C120911F
:10383000A7043091A8044091A9045091AA0460E023
:1038400074E284EF90E00E94641E20513109410926
:10385000510956954795379527952093B80097CEEF
:1038600061E0809194040E94160961E080919504C2
:103870000E94160980919404082E000C990BFC01FB
:10388000E854F84FE491F0E0EE0FFF1FE256F84FD6
:103890002591349130939C0420939B04FC01E85AB9
:1038A000F84FE491E093A10480919504082E000C58
:1038B000990BFC01E854F84FE491F0E0EE0FFF1F84
:1038C000E256F84FA591B491B0939E04A0939D0445
:1038D000FC01E85AF84FE491E093A2048C91E82BA4
:1038E000EC938091890490918A04892B09F434C067
:1038F000CFB7F89480914703811127C0EDEEF7E030
:103900008491EDE8F7E09491E82FF0E0EE0FFF1FCF
:10391000E45DF84FA591B491EC91E92321F461E0C5
:1039200085E30E94E40861E085E30E9416098CB5F6
:1039300080618CBD8CB580648CBD61E084E30E94A5
:10394000160961E083E30E941609809147038F5FA7
:1039500080934703CFBFBECE61E0809192040E9466
:10396000160961E0809193040E94160980919204E7
:10397000082E000C990BFC01E854F84FE491F0E09C
:10398000EE0FFF1FE256F84F2591349130939804C3
:1039900020939704FC01E85AF84FE491E0939F04C8
:1039A00080919304082E000C990BFC01E854F84F09
:1039B000E491F0E0EE0FFF1FE256F84FA591B491AD
:1039C000B0939A04A0939904FC01E85AF84FE4914B
:1039D000E093A0048C91E095E823EC937BCE80915A
:1039E000890490918A04892B31F08091AC049091E4
:1039F000AD040E940B0CE0919D04F0919E04908117
:103A00008091A204809589238083A5CE8FECDCCEA3
:103A10008036910569F48091740490917504409703
:103A200039F480919004813029F480E18093AB04D3
:103A3000C2E0CDCE8FEAFACFE0919D04F0919E04D2
:103A400080819091A204892B8083A1CD512C8091FB
:103A50005A04581608F060C0052D10E0E091570494
:103A6000F0915804E00FF11F61E080810E94160977
:103A7000E0915704F0915804E00FF11F60E080815D
:103A80000E94E408D501C401052C04C0880F991FC9
:103A9000AA1FBB1F0A94D2F76C017C01E094F0943A
:103AA000412C80915904481600F5C42DD0E0809136
:103AB0005504909156048C0F9D1FFC0180810E943B
:103AC000B8082496CC0FDD1FCD50DC4F892B41F474
:103AD000888199818C299D29998388834394E1CF9A
:103AE000888199818E219F21F7CFE0915704F09131
:103AF0005804E00FF11F61E080810E94E40880918A
:103B0000570490915804080F191F60E0F801808154
:103B10000E94160953949BCFC3EFD3E0FE01878D1B
:103B200090A1892B21F4148E768E658E11A2369683
:103B300044E0EF32F40799F710E080915904181728
:103B400008F052C000E0E12EF12CEE0CFF1CC70182
:103B500085509C4F7C0120915A04021708F042C006
:103B6000F70160817181002E02C0769567950A94F5
:103B7000E2F7129F90011124200F311DE3EFF3E0D3
:103B800080E0458D568D2417350709F48CC08F5F72
:103B900036968A30B1F760FF23C0E3EFF3E090E0A0
:103BA00080E0448D411117C0E0915304F09154041A
:103BB000E20FF31F6081289EF001299EF00D112471
:103BC000ED50FC4F648F368F258F10A2178E61E069
:103BD0000E94AB0605C0019636968A30910509F71A
:103BE0000F5FB9CF1F5FA9CF80E099A19111892FF5
:103BF0002696F4E0CF32DF07C1F79FB7F8944091E3
:103C00004E0350914F0360915003709151039FBF39
:103C100040934F04509350046093510470935204A6
:103C2000882389F080911404882369F0809112041C
:103C300090911304019739F4C0910F04C11106C08B
:103C40000E942008D6CC10925F04FACF6C2F86E534
:103C500093E00E94B30764E872E086E593E00E9477
:103C600098160E94761610927B0410927A04109295
:103C70007D0410927C04309282043092830467E8C1
:103C800072E08EE694E00E9498166C2F8EE694E027
:103C90000E94490E64E872E08EE694E00E94981655
:103CA0000E94EC14CDCF617093CF8BE492E090939F
:103CB0006F0480936E0480918D0490918E04009720
:103CC00011F00C942A1F0895A1E21A2EAA1BBB1B07
:103CD000FD010DC0AA1FBB1FEE1FFF1FA217B307D8
:103CE000E407F50720F0A21BB30BE40BF50B661FEE
:103CF000771F881F991F1A9469F7609570958095B2
:103D000090959B01AC01BD01CF010895EE0FFF1FFF
:103D1000881F8BBF0790F691E02D19940F931F9386
:103D2000CF93DF938230910510F482E090E0E09130
:103D3000B004F091B10430E020E0B0E0A0E03097B2
:103D400099F42115310509F44AC0281B390B243098
:103D50003105D8F58A819B816115710589F1FB01D7
:103D600093838283FE0111C04081518102811381BE
:103D700048175907E0F04817590799F4109761F070
:103D800012960C93129713961C933296CF01DF91E3
:103D9000CF911F910F9108950093B0041093B10437
:103DA000F4CF2115310551F04217530738F0A9011E
:103DB000DB019A01BD01DF01F801C1CFEF01F9CFAD
:103DC0009093B1048093B004CDCFFE01E20FF31FB6
:103DD000819391932250310939832883D7CF209141
:103DE000AE043091AF04232B41F4209115023091A1
:103DF00016023093AF042093AE0420911302309149
:103E000014022115310541F42DB73EB74091170238
:103E100050911802241B350BE091AE04F091AF04D1
:103E2000E217F307A0F42E1B3F0B2817390778F091
:103E3000AC014E5F5F4F2417350748F04E0F5F1FF0
:103E40005093AF044093AE04819391939FCFF0E0E1
:103E5000E0E09CCFCF93DF930097E9F0FC0132972D
:103E600013821282A091B004B091B104ED0130E050
:103E700020E01097A1F420813181820F931F2091BF
:103E8000AE043091AF042817390709F061C0F093F0
:103E9000AF04E093AE04DF91CF910895EA01CE170D
:103EA000DF07E8F54A815B819E0141155105B1F7B5
:103EB000E901FB83EA8349915991C40FD51FEC179F
:103EC000FD0761F4808191810296840F951FE901BD
:103ED00099838883828193819B838A83F0E0E0E0E9
:103EE00012968D919C9113970097B9F52D913C9165
:103EF0001197CD010296820F931F2091AE0430914D
:103F0000AF042817390739F6309751F51092B104EC
:103F10001092B004B093AF04A093AE04BCCFD3838F
:103F2000C28340815181840F951FC817D90761F45E
:103F30004E5F5F4F88819981480F591F518340839D
:103F40008A819B81938382832115310509F0B0CF4B
:103F5000F093B104E093B0049ECFFD01DC01C0CF2B
:103F600013821282D7CF81E090E0F8940C94BF1FA7
:103F7000DC0101C06D9341505040E0F7089516E018
:103F8000C3E5D6E000E006C0802FFE010E94861E39
:103F90002196011DC435D10780E00807A9F7F894E0
:023FA000FFCF51
:103FA200363738030405063132333435363738397B
:103FB2002A30230000B204800000000000B3071D75
:103FC200074A0700087B0759076D0700000000BF7A
:103FD200129212731687068B127812691200000071
:103FE2000052091209E10800000000490E1D077382
:103FF200160212540B8706EE10C610E210D61056A7
:104002001187060F0C1D16C40A0D0B0F10F20F7A42
:104012000F1B0FC2A1486F6C612C2041726475693D
:104022006E6F21000D0A00446967697461646F3A1A
:0240320020006C
:00000001FF
